:100000000C9469000C9491000C9491000C94910054
:100010000C9491000C9491000C94B1050C949100F7
:100020000C9491000C9491000C9491000C9491000C
:100030000C9491000C9491000C9491000C949100FC
:100040000C948E010C9491000C9413020C94ED010D
:100050000C9491000C9491000C9491000C949100DC
:100060000C94C8050C9491000003020500030501DF
:100070000406020400000000240027002A001F1CC0
:100080001F1E1F1E1F1F1E1F1E1F00000000250019
:1000900028002B00040404040404040402020202E5
:1000A000020203030303030301020408102040803B
:1000B00001020408102001020408102000000008BA
:1000C000000201000003040700000000000000001F
:1000D000840E11241FBECFEFD8E0DEBFCDBF12E0EB
:1000E000A0E0B1E0E4E9FAE202C005900D92A83088
:1000F000B107D9F724E0A8E0B2E001C01D92A6370D
:10010000B207E1F710E0C9E6D0E004C02197FE0194
:100110000E94E612C836D107C9F70E94D90A0C948A
:1001200048150C940000CF92DF92EF92FF920F934C
:100130001F93CF93DF936C017A018B01C0E0D0E075
:10014000CE15DF0581F0D8016D918D01D601ED91BD
:10015000FC910190F081E02DC6010995892B11F0E9
:100160002196EECF7E01C701DF91CF911F910F91B4
:10017000FF90EF90DF90CF900895FC01538D448D58
:10018000252F30E0842F90E0821B930B541710F042
:10019000CF96089501970895FC01918D828D98174F
:1001A00061F0828DDF01A80FB11D5D968C91928D5B
:1001B0009F5F9F73928F90E008958FEF9FEF089558
:1001C000FC01918D828D981731F0828DE80FF11D21
:1001D000858D90E008958FEF9FEF08950E94D314CE
:1001E00081EE92E00E94450221E0892B09F420E093
:1001F000822F0895EF92FF920F931F93CF93DF9377
:10020000EC0181E0888F9B8D8C8D981305C0E88967
:10021000F989808185FD26C0F62E0B8D10E00F5FD9
:100220001F4F0F731127E02E8C8DE8120CC00FB6F4
:1002300007FCFACFE889F989808185FFF5CFCE01E7
:100240000E940805F1CF8B8DFE01E80FF11DE35AE6
:10025000FF4FF0829FB7F8940B8FEA89FB8980816A
:1002600080620AC09FB7F894EE89FF896083E889AD
:10027000F98980818370806480839FBF81E090E0F2
:10028000DF91CF911F910F91FF90EF900895CF9341
:10029000DF93EC01888D8823C9F0EA89FB8980818E
:1002A00085FD05C0A889B9898C9186FD0FC00FB660
:1002B00007FCF5CF808185FFF2CFA889B9898C91A1
:1002C00085FFEDCFCE010E940805E7CFDF91CF91EA
:1002D00008953FB7F8948091150290911602A0916D
:1002E0001702B091180226B5A89B05C02F3F19F040
:1002F0000196A11DB11D3FBFBA2FA92F982F8827A6
:10030000820F911DA11DB11DBC01CD0142E0660F00
:10031000771F881F991F4A95D1F708951F920F9252
:100320000FB60F9211242F933F938F939F93AF9308
:10033000BF9380918A0390918B03A0918C03B0911D
:100340008D033091140223E0230F2D3720F4019602
:10035000A11DB11D05C026E8230F0296A11DB11DE8
:100360002093140280938A0390938B03A0938C03B1
:10037000B0938D038091150290911602A0911702FF
:10038000B09118020196A11DB11D809315029093A2
:100390001602A0931702B0931802BF91AF919F91DC
:1003A0008F913F912F910F900FBE0F901F90189536
:1003B0006115710579F0FB0101900020E9F7319793
:1003C000AF01461B570BDC01ED91FC910280F381DC
:1003D000E02D099480E090E008951F920F920FB6EF
:1003E0000F9211242F933F934F935F936F937F93BB
:1003F0008F939F93AF93BF93EF93FF9381EE92E020
:100400000E940805FF91EF91BF91AF919F918F914D
:100410007F916F915F914F913F912F910F900FBE00
:100420000F901F9018951F920F920FB60F921124E4
:100430002F938F939F93EF93FF93E091F102F091AD
:10044000F2028081E091F702F091F80282FD12C081
:1004500090818091FA028F5F8F732091FB02821747
:1004600051F0E091FA02F0E0EF51FD4F958F80934B
:10047000FA0201C08081FF91EF919F918F912F919E
:100480000F900FBE0F901F901895FC01918D228D3B
:10049000892F90E0805C9F4F821B91098F73992771
:1004A000089580E090E0892B29F00E94F0008111EE
:1004B0000C9400000895089508950895E091750240
:1004C00080917402E81730F4F0E0EA58FD4F808123
:1004D00090E008958FEF9FEF0895909175028091BD
:1004E0007402981750F4E92FF0E0EA58FD4F20818C
:1004F00030E09F5F9093750202C02FEF3FEFC9017C
:1005000008958091740290E020917502821B9109F8
:100510000895089580E090E0089585ED8093BC00F3
:100520008091BC0084FDFCCF1092BC0208954091E4
:100530004102262F30E0240F311D21323105DCF439
:100540002091BC022430C9F4FC0180E090E08617C1
:1005500058F4309141022191DC01AF5DBD4FA30FF2
:10056000B11D2C930196F3CF80914102680F6093E7
:10057000410280E0089581E0089582E00895CF92DD
:10058000DF92EF92FF920F931F93CF93DF937C0143
:10059000CB018A012091BD02222389F0EB016B017E
:1005A000C40ED51ECC15DD0569F06991D701ED911A
:1005B000FC910190F081E02DC7010995F3CF642FE4
:1005C0000E949702C801DF91CF911F910F91FF9078
:1005D000EF90DF90CF900895CF93DF931F92CDB728
:1005E000DEB769832091BD022223D1F02091E00281
:1005F000203240F021E030E0FC013383228380E0B0
:1006000090E015C08091BE02E82FF0E0E154FD4F6C
:10061000998190838F5F8093BE028093E00205C032
:1006200061E0CE0101960E94970281E090E00F9078
:10063000DF91CF910895CF93DF930E943008EC01B2
:1006400063E088E00E94F40786EC91E00E942308B2
:10065000CE010E942308CE010E948413E0E0F0E066
:10066000DF91CF910994CF93DF930E943008EC0182
:100670000E94380863E081E00E94F407CE010E94E6
:100680002308CE01DF91CF910C9484130F931F9315
:10069000CF93DF930E943008EC010E94DA0F8C01A7
:1006A000682F8DE00E94200A0130110549F40E9454
:1006B000280862E08CE00E94F40782ED91E008C017
:1006C0000E94280862E08CE00E94F4078AED91E025
:1006D0000E942308CE01DF91CF911F910F910C94BE
:1006E000841381E08093BD0287E28093DF02109241
:1006F000BE021092E0020E944A078150843060F4EA
:1007000062EE71E081EE92E00E94D8016FEB71E041
:1007100081EE92E00C94D80108950E94830F80E04E
:1007200090E0A0EEB1E480931D0290931E02A0938E
:100730001F02B09320020E94830F24E130E040E0CA
:1007400050E00E94271066527D4F8F4F9F4F0E94AE
:100750009F1120E030E040E251E40E94FC106093E1
:10076000190270931A0280931B0290931C0263E09B
:1007700080E00C94F407EF92FF920F931F93CF93B6
:10078000DF93CDB7DEB76A970FB6F894DEBF0FBE22
:10079000CDBF81E08093BD0288E68093DF02109296
:1007A000BE021092E00280E090E00E94EF070E94FB
:1007B0004A0787E090E00E94A6079091740280911A
:1007C00075029817F1F38E01015F1F4FCE0101965C
:1007D0007C018EE793E00E946D02982F92959F70A6
:1007E0008F70EAE09E9F800D112490E0F8019293B3
:1007F00082938F01EE16FF0661F70E944A07698116
:100800007A819B012053384F309365022093640214
:100810004B81409366028D819E81809367025F8148
:1008200050936B02F984F09268020B850093690281
:100830001D8510936A029927EEE7F0E051E0541706
:1008400030F4A4918A0F911D5F5F3196F8CF42304A
:1008500031F4AB0143705527452B09F45CC02D5C86
:1008600037403695279536952795EDE6F1E06E9F52
:10087000A0016F9F500D7E9F500D1124240F351F36
:1008800021503109280F391FA8E1B0E00E947B10E8
:100890009B01AC012F0D311D411D511DACE3B0E09A
:1008A0000E9446109B01AC01200F311D411D511DBE
:1008B0000E944610DC01CB01810F911DA11DB11DCD
:1008C00080599A4CA249B74C80936C0290936D0268
:1008D000A0936E02B0936F028CE0E4E6F2E0DE01DA
:1008E0001F9601900D928A95E1F78CE0FE013F96EC
:1008F000A8E0B2E001900D928A95E1F76A960FB6F2
:10090000F894DEBF0FBECDBFDF91CF911F910F9145
:10091000FF90EF9008950196A2CFAF92BF92CF9231
:10092000DF92EF92FF920F931F93CF93DF9381EEAD
:1009300092E00E944502181619060CF05EC081EE86
:1009400092E00E94CC00C82F80914D04C81339C09A
:1009500040E754E06BE474E08EE494E00E94F80F0A
:100960008C01892B49F1C0904804D12CC0914604D8
:10097000D0914704E12CF12CEC14FD04ACF45E01A1
:1009800048E050E0BE01C8010E94F1142B96892B6B
:1009900039F4D5011996ED91FC911A9709950CC07F
:1009A000BFEFEB1AFB0AE8CFE0914904F0914A044B
:1009B000309711F0C801099510924E0410926F04FF
:1009C000B6CF8C2F0C2E000C990B0E94DA14892BB9
:1009D00009F4ADCFE0916F04E03208F0A8CF81E0D8
:1009E0008E0F80936F04F0E0EA5BFB4FC087E82F27
:1009F000F0E0EA5BFB4F10869ACFDF91CF911F9119
:100A00000F91FF90EF90DF90CF90BF90AF9008953F
:100A1000FC01848DDF01A80FB11DA35ABF4F2C919B
:100A2000848D90E001968F739927848FA689B7896A
:100A30002C93A089B1898C91837080648C93938D61
:100A4000848D981306C00288F389E02D80818F7D04
:100A500080830895FC01848191E09093BD0280938E
:100A6000DF021092BE021092E0028385862B90E096
:100A70000E94EF070C944A07CF93DF930E9430083F
:100A8000EC010E94DA0F009741F41092990360E0A4
:100A90008EE893E00E942A0504C0019711F40E9499
:100AA0002808CE01DF91CF910C9484130F931F93EC
:100AB000CF93DF930E943008EC010E94DA0F8C0183
:100AC0000E9438080130110511F481E004C00230A1
:100AD000110551F482E0809340011092990360E087
:100AE0008EE893E00E942A05CE01DF91CF911F91FD
:100AF0000F910C9484130F931F93CF938C01C62FE7
:100B00000E942A056C2F6460C8010E942A056C2F80
:100B10006B7FC8010E942A0583EC90E00197F1F7F2
:100B2000CF911F910F9108950F931F93CF93DF9350
:100B30008C01C62FD42F607F642B0E947B0580E13F
:100B4000C89FB00111246D2BC801DF91CF911F9177
:100B50000F910C947B0541E00E94940581E090E0A8
:100B600008951F920F920FB60F9211248F930FB614
:100B7000F894A8958091600088618093600010923D
:100B800060000FBE8F910F900FBE0F901F901895B1
:100B90001F920F920FB60F9211242F933F934F93F2
:100BA0005F936F937F938F939F93AF93BF93EF93D5
:100BB000FF938091B900887F803609F49CC068F566
:100BC000883209F45BC090F4803109F454C038F4E1
:100BD000882309F4F6C0883009F44DC0F6C0883186
:100BE00009F44CC0803209F45DC0EFC0803409F4D0
:100BF00068C048F4803309F455C0883309F0E5C073
:100C00008093BA02D8C0803509F44FC0883509F402
:100C10005DC0883409F0D9C0D6C0883909F4C7C08E
:100C2000A8F4883709F467C038F4883609F463C03B
:100C3000803709F460C0C9C0883809F4B8C0803969
:100C400009F45FC0803809F0C0C05BC0803B09F484
:100C500086C038F4803A09F466C0883A09F47FC047
:100C6000B4C0803C09F4A7C0883C09F4A4C0883B08
:100C700009F48AC0AAC08091970210C09091B9026D
:100C80008091B802981770F5E091B90281E08E0F5B
:100C90008093B902F0E0E856FD4F80818093BB005D
:100CA00085EC86C08093BA028EC0E091B90281E0E3
:100CB0008E0F8093B9028091BB00F0E0E856FD4FA3
:100CC00080839091B9028091B8026EC0E091B90220
:100CD00081E08E0F8093B9028091BB00F0E0E8566E
:100CE000FD4F80838091BB0281116DC081E08093B4
:100CF000960284EA61C083E08093BC021092630292
:100D0000CFCF80916302803208F051C0E09163023E
:100D100081E08E0F809363028091BB00F0E0ED5B79
:100D2000FD4F8083BDCF85EC8093BC001092BC0248
:100D300080916302803230F4E0916302F0E0ED5B79
:100D4000FD4F10826091630270E0E0917002F091BB
:100D5000710283E492E009951092630236C084E048
:100D60008093BC021092420210924102E091720202
:100D7000F0917302099580914102811105C081E0D3
:100D80008093410210922102E091420281E08E0F95
:100D900080934202F0E0EF5DFD4F80818093BB00C5
:100DA0009091420280914102981708F479CF85E82A
:100DB0008093BC000AC085EC8093BC001092BC02FA
:100DC00004C01092BA020E948D02FF91EF91BF9170
:100DD000AF919F918F917F916F915F914F913F91D3
:100DE0002F910F900FBE0F901F90189561E08AE031
:100DF0000E94F40766E08EE893E00E94AB0562E093
:100E00008AE00E94F40762E08EE893E00C94AB0560
:100E100061E081E00E94F40768E08EE893E00E94C0
:100E2000AB0561E083E00E94F40760911D027091C0
:100E30001E0280911F029091200240E00E944A0908
:100E400061E085E00E94F40741E06FED8EE893E0F9
:100E50000E94940585EF91E00E94230862E081E002
:100E60000E94F40769E08EE893E00E94AB0562E01F
:100E700083E00E94F4076091190270911A02809138
:100E80001B0290911C0240E00E944A0988EF91E009
:100E90000C9423083091E002313208F04BC080916D
:100EA000BC028111FCCF9091DF0222E02093BC02B2
:100EB00021E02093BB022FEF2093BA021092B902D7
:100EC0003093B802EFEBF2E0A8E9B2E020E032178D
:100ED00021F041914D932F5FFACF1092970220910C
:100EE0009702990F922B90939702909196029130CE
:100EF00061F410929602909197029093BB009091AA
:100F0000BC0093FDF8CF95EC01C095EE9093BC002A
:100F10009091BC029230E1F39091BA029F3F79F038
:100F20008091BA02803241F08091BA02803331F070
:100F300084E005C081E003C082E001C083E010923C
:100F4000BE021092E0021092BD0208959091BC0280
:100F50009111FCCF982F813208F090E281E08093CC
:100F6000BC028093BB022FEF2093BA021092B90209
:100F7000290F2093B8028093970280919702806D89
:100F80008093970280919602813061F410929602CC
:100F9000809197028093BB008091BC0083FDF8CFC5
:100FA00085EC01C085EE8093BC008091BC0281304D
:100FB000E1F38091B902891710F49091B902E8E940
:100FC000F2E0A6E7B2E080E0891721F021912D93AD
:100FD0008F5FFACF10927502809374020895682F84
:100FE0008EE793E00C94EC02CF93DF93CDB7DEB79E
:100FF00028970FB6F894DEBF0FBECDBF98E0EBE4A4
:10100000F1E0DE01119601900D929A95E1F7909131
:101010009703961710F46FEF690FFE013196E60FF4
:10102000F11DE60FF11D6081680F606840E08EE8F9
:1010300093E028960FB6F894DEBF0FBECDBFDF91C8
:10104000CF910C949405BC018EE893E00C94D801E8
:1010500088E08093990360E08EE893E00C942A0581
:1010600040E754E06BE474E080E090E00C94F80F0B
:1010700040E061E08EE893E00E9494058BE39FE1FD
:101080000197F1F708950F931F93CF93DF938B018F
:10109000877098E0899FB0011124606440E08EE879
:1010A00093E00E949405E801085F1F4F69918EE864
:1010B00093E00E94AB05C017D107C1F7DF91CF9134
:1010C0001F910F9108958F929F92AF92BF920F93AD
:1010D0001F93CF93DF93CDB7DEB7A1970FB6F894E8
:1010E000DEBF0FBECDBF19A2423008F44AE08E0128
:1010F0000F5D1F4F842E912CA12CB12CA5019401C2
:101100000E945910E62FB901CA0101501109EA30B5
:1011100014F4E05D01C0E95CD801EC93232B242B8F
:10112000252B61F7B8018EE893E00E94D801A196C3
:101130000FB6F894DEBF0FBECDBFDF91CF911F91E8
:101140000F91BF90AF909F908F900895682F70E09F
:1011500080E090E04AE00C946308209144043091D0
:1011600045042A3031056CF4E2ECF3E020E030E095
:10117000A191B191AB2B41F02F5F3F4F2A30310548
:10118000B9F78FEF9FEF089541155105D1F3F9019C
:10119000EE0FFF1FEE0FFF1FEA52FC4F60837183BB
:1011A00082839383F901EE0FFF1FEE53FC4F5183AF
:1011B0004083F901EE0FFF1FE250FC4F11821082B5
:1011C000F901EA5DFB4F81E080834FB7F89480918D
:1011D0008A0390918B03A0918C03B0918D034FBF34
:1011E000F901EE0FFF1FEE0FFF1FE656FC4F808345
:1011F0009183A283B3838091440490914504019626
:101200009093450480934404C9010895EF92FF929E
:101210000F931F93CF93DF937C018B01C6E4D4E03F
:101220008A8190E001962BE0289FB001299F700DE4
:101230001124888199810E940D14998388832A81C1
:1012400048E050E0B7013BE0239F800D911D112441
:101250000E94FF148A81E881F9819BE0899FE00D5B
:10126000F11D1124128701878F5F8A83DF91CF914F
:101270001F910F91FF90EF900895FC019081905382
:101280009A3008F090E0818180532AE0929F800D8F
:10129000112408958F929F92AF92BF92CF92DF92C6
:1012A000EF92FF920F931F93CF93DF936B017C011B
:1012B000142F9B01AC010E94C112882319F06BEF1F
:1012C00071E027C046015701E894B7F82FEF3FEFD0
:1012D0004FE75FE7C501B4010E94C11281110DC043
:1012E0002FEF3FEF4FE75FE7C501B4010E94F71012
:1012F00018161CF46FEF71E00CC02FEF3FEF4FE7B3
:101300005FE4C701B6010E944F12181694F463E01F
:1013100072E08EE893E0DF91CF911F910F91FF90E3
:10132000EF90DF90CF90BF90AF909F908F900C94F4
:10133000D8012FEF3FEF4FE75FECC701B6010E94E6
:10134000F71087FDE4CF20E030E0A901C701B60126
:101350000E94F71087FF0DC041E06DE28EE893E038
:101360000E949405F7FAF094F7F8F094C1E0D0E009
:1013700002C0C0E0D0E000E060E070E080E09FE309
:10138000101741F020E030E040E251E40E94FC10F0
:101390000F5FF6CFA70196010E948B106B017C01B5
:1013A0000E946E114B015C014AE00E946308C80F65
:1013B000D91F1123B9F1C501B4010E949D119B01F0
:1013C000AC01C701B6010E948A106B017C0141E0AB
:1013D0006EE28EE893E00E949405219620E030E0D2
:1013E00040E251E4C701B6010E9454124B015C0176
:1013F0000E946E116B01E12CF12C4AE0C701B6018D
:101400000E946308C80FD91FC701B6010E949D1131
:101410009B01AC01C501B4010E948A106B017C01E3
:101420001150E1F6CE01DF91CF911F910F91FF9006
:10143000EF90DF90CF90BF90AF909F908F900895E6
:1014400090E0FC01E454FF4F2491FC01E855FF4F6C
:101450003491FC01EC56FF4FE491EE2309F43CC0BB
:10146000222339F1233091F038F42130A9F02230D1
:1014700001F584B58F7D12C0273091F02830A1F09E
:101480002430B9F4809180008F7D03C0809180006A
:101490008F77809380000DC084B58F7784BD09C09D
:1014A0008091B0008F7703C08091B0008F7D8093D2
:1014B000B000F0E0EE0FFF1FE657FF4FA591B4918B
:1014C0009FB7F894611104C08C913095382302C005
:1014D000EC913E2B3C939FBF0895109275021092A1
:1014E00074021092BE021092E0021092BC0281E0DF
:1014F0008093BB021092960261E082E10E94200A72
:1015000061E083E10E94200AE9EBF0E080818E7FB8
:10151000808380818D7F808388E48093B80085E418
:101520008093BC008BE592E09093730280937202EB
:101530008CE592E0909371028093700208958F92EF
:101540009F92AF92BF92CF92DF92EF92FF926B0188
:101550007C010E9469014B015C01C114D104E104CA
:10156000F104F1F00E946901DC01CB0188199909AD
:10157000AA09BB09883E9340A105B10570F321E09B
:10158000C21AD108E108F10888EE880E83E0981E9F
:10159000A11CB11CC114D104E104F10419F7DDCF81
:1015A000FF90EF90DF90CF90BF90AF909F908F9083
:1015B0000895CF93DF9300D000D0CDB7DEB77894F5
:1015C00084B5826084BD84B5816084BD85B5826048
:1015D00085BD85B5816085BD80916E0081608093F9
:1015E0006E00109281008091810082608093810062
:1015F0008091810081608093810080918000816072
:10160000809380008091B10084608093B1008091CC
:10161000B00081608093B00080917A0084608093F4
:101620007A0080917A00826080937A0080917A00BB
:10163000816080937A0080917A00806880937A003C
:101640001092C1000E946D0A81E08093BD0288E67D
:101650008093DF021092BE021092E0026EE08EE7ED
:1016600093E00E94EC020E944A0781E090E00E9411
:10167000A60790917402809175029817F1F38EE796
:1016800093E00E946D0289830E944A0701E0009363
:10169000BD0258E6F52EF092DF021092BE021092C3
:1016A000E0026EE08EE793E00E94EC0269816B73CA
:1016B0008EE793E00E94EC020E944A0780ED97E0DB
:1016C0009093650280936402009366020093670220
:1016D000109268021092690210926A0286E080936A
:1016E0006B0280E795E3ADE6B8E380936C029093DC
:1016F0006D02A0936E02B0936F028CE891E00E949D
:101700003D09898387E891E00E943D09182F8FE801
:1017100091E00E943D09E82E82E991E00E943D0996
:10172000D82E85E991E00E943D09C82E3981232FEA
:1017300030E02053384F3A8329830093BD02F09262
:10174000DF021092BE021092E00280E090E00E9460
:10175000EF070AE08C2D602F0E94C612692F40E12E
:10176000849F600D11248EE793E00E94EC028D2D82
:10177000602F0E94C612692F50E1859F600D1124D1
:101780008EE793E00E94EC028E2D602F0E94C6121D
:10179000692F70E1879F600D11248EE793E00E940E
:1017A000EC02ECE6F0E0E491812F90E08E0F911DC9
:1017B0000596A981BA818A0F9B1F9D0136952795B1
:1017C00036952795280F391FCD0164E670E00E94F9
:1017D000D212C901861B970B67E070E00E94D212FB
:1017E000882311F0682F01C067E08EE793E00E9424
:1017F000EC02812F6AE00E94C612692FB0E18B9F34
:10180000600D11248EE793E00E94EC0265E08EE704
:1018100093E00E94EC028981805D6AE00E94C6121A
:10182000692FE0E18E9F600D11248EE793E00E9406
:10183000EC0280E090E00E94EF070E944A07E5EB8F
:10184000F0E02491E1EAF0E08491882399F090E0BF
:10185000880F991FFC01EC58FF4FA591B491FC0132
:10186000E657FF4F859194918FB7F894EC91E22B56
:10187000EC938FBFEAEAF0E02491E6E9F0E084918E
:101880008823D9F090E0880F991FFC01EC58FF4F96
:10189000459154915A834983FC01E657FF4FA59126
:1018A000B4919FB7F894FA018081322F3095832349
:1018B0008083EC91E22BEC939FBF0E946D0A109203
:1018C000930380919703823018F098E090939303EC
:1018D00090919803992339F0813029F480919303F2
:1018E00084608093930362E370E080E090E00E9464
:1018F0009F0A609199038EE893E00E942A0568EEA2
:1019000073E080E090E00E949F0A60E38EE893E03D
:101910000E947B058BE496E40197F1F760E38EE883
:1019200093E00E947B052BE436E4C9010197F1F7AF
:1019300060E38EE893E00E947B0583E592E00197E7
:10194000F1F760E28EE893E00E947B0560919303DB
:10195000606240E08EE893E00E94940584E080930A
:10196000940340E06CE08EE893E00E9494050E94AE
:10197000380892E09093950340E066E08EE893E0AB
:101980000E94940540E062E08EE893E00E94940596
:101990008BE39FE10197F1F70E94280868E371E06B
:1019A00082E00E94430860E371E083E00E94430804
:1019B00068E271E084E00E94430860E271E085E043
:1019C0000E94430868E171E086E00E94430860E1FC
:1019D00071E087E00E94430868E071E088E00E94BF
:1019E000430860E071E089E00E94430866E473E028
:1019F00088E991E00E9406096CE375E08CE991E0CA
:101A00000E94060966E575E083EA91E00E940609F6
:101A10006BE173E088EA91E00E94060963E373E0FA
:101A20008EEA91E00E9406094DE854E062E370E01E
:101A300080E090E00E94AD084BEB53E068EE73E06D
:101A400080E090E00E94AD0841E753E060ED77E070
:101A500080E090E00E94AD084DE853E060EA7FE04E
:101A600080E090E00E94AD08E091F102F091F20276
:101A7000A2E0A083E091ED02F091EE021082E091ED
:101A8000EF02F091F0028FEC80831092F902E09166
:101A9000F502F091F60286E08083E091F302F09186
:101AA000F402808180618083E091F302F091F4027E
:101AB000808188608083E091F302F091F40280815C
:101AC00080688083E091F302F091F40280818F7D41
:101AD000808363EB71E081EE92E00E94D8016FEBAE
:101AE00071E081EE92E00E94D8010E9438088FB721
:101AF000F894C0908A03D0908B03E0908C03F09010
:101B00008D038FBFEEEFF3E09AE9292E93E0392E93
:101B100006E214E022E134E03C832B8398013A8210
:101B2000298213AA12AACF01CC97DC018D919C9136
:101B3000892B09F442C0A981BA818D909D90AD9006
:101B4000BC901397DC964D915D916D917C91DF97E0
:101B500026013701481859086A087B0844165506BB
:101B60006606770650F1480D591D6A1D7B1D4D9381
:101B70005D936D937C931397D9018C918823E9F041
:101B8000408151814115510529F441E050E053ABAA
:101B900042AB13C0848995898417950774F461E07A
:101BA00070E073AB62AB0196958B848B84179507BD
:101BB00024F082E090E093AB82AB3296A981BA81A7
:101BC0001496BA83A9832F5F3F4FB4E0E231FB073D
:101BD00009F0A7CF8AE9E82E83E0F82EEB81FC819B
:101BE000868D978D8130910519F0029741F02EC0B6
:101BF000D7019896ED91FC919997099527C0D70147
:101C00009896ED91FC919997099580914404909153
:101C100045040097D9F0F70120A531A5232BB1F099
:101C200011A610A6D8011C92EB81FC81178E168E8E
:101C3000D101DC961D921D921D921C92DF9711829C
:101C4000108201979093450480934404B2E0EB0E18
:101C5000F11C0F5F1F4FE4E02E0E311C2B813C81E5
:101C60002E5F3F4F3C832B834EEA53E04E155F05BA
:101C700009F0B4CF809140018130E9F560E00E9425
:101C8000F40780910C020E94A60882EC91E00E9469
:101C9000230880910D020E94A60882EC91E00E9428
:101CA000230880910E020E94A60889EF91E00E940D
:101CB000230860E08AE00E94F40780910B020E94F2
:101CC000A60884EC91E00E94230880910A020E94F9
:101CD000A60884EC91E00E942308609108027091AC
:101CE000090280E090E04AE00E94630889EF91E0F9
:101CF0000E94230802C0823021F40E9408070E943B
:101D0000F6060E945102F3CECF93DF931092E402C5
:101D10001092E30288EE93E0A0E0B0E08093E50249
:101D20009093E602A093E702B093E80227E531E042
:101D30003093E2022093E10225EC30E03093EE0292
:101D40002093ED0224EC30E03093F0022093EF0278
:101D500020EC30E03093F2022093F10221EC30E0ED
:101D60003093F4022093F30222EC30E03093F60239
:101D70002093F50226EC30E03093F8022093F7022E
:101D80001092FA021092FB021092FC021092FD02D5
:101D900010928103109280038093820390938303B7
:101DA000A0938403B093850389E691E090937F0329
:101DB00080937E03109247041092460410924804C8
:101DC00010924A04109249048AE080934D041092C4
:101DD00071041092700469EF71E08BE494E00E944A
:101DE000EA1410924E0410926F048FB7F894409149
:101DF0008A0350918B0360918C0370918D038FBF88
:101E0000C6E2D4E0E2ECF3E02AE933E01992119261
:101E10001192D9014D935D936D937D939D01CF01F7
:101E2000825B9F4FDC011D921C92B3E0E63DFB07F5
:101E300069F7109245041092440410929103109295
:101E400090038BE791E090938F0380938E0387E25A
:101E50008093920384E18093960384E080939703B8
:101E60001092980388E080939903DF91CF910895B1
:101E70008F929F92AF92BF92CF92DF92EF92FF929A
:101E8000CF93DF93EC01688179818A819B81611511
:101E900071058105910521F464E279ED8BE597E008
:101EA0002DE133EF41E050E00E94271049015A0133
:101EB0009B01AC01A7EAB1E40E9446106B017C01D2
:101EC000ACEEB4EFA50194010E945410DC01CB01EB
:101ED0008C0D9D1DAE1DBF1DB7FF03C00197A1094D
:101EE000B04888839983AA83BB83BC01CD019F77C7
:101EF000DF91CF91FF90EF90DF90CF90BF90AF90A8
:101F00009F908F9008958F929F92AF92BF92CF92A1
:101F1000DF92EF92FF9260914101709142018091B6
:101F2000430190914401611571058105910521F4EA
:101F300064E279ED8BE597E02DE133EF41E050E08D
:101F40000E94271049015A019B01AC01A7EAB1E4A4
:101F50000E9446106B017C01ACEEB4EFA501940128
:101F60000E945410DC01CB018C0D9D1DAE1DBF1DC8
:101F7000B7FF03C00197A109B04880934101909336
:101F80004201A0934301B0934401BC01CD019F776E
:101F9000FF90EF90DF90CF90BF90AF909F908F9089
:101FA000089560934101709342018093430190939F
:101FB00044010895FC0188279927E8942191203253
:101FC000E9F3293010F02E30C8F32B3241F02D32D6
:101FD00039F4689404C00E941F10820F911D219152
:101FE00020532A30C0F31EF4909581959F4F089599
:101FF000FA01A191B081009719F41097E1F0CD0199
:10200000DC01CD010D90002011F4C00113C0FB01D3
:102010002191222319F02015D9F7F3CFFB0121914B
:10202000201519F41E92119606C02223C1F70D90B7
:102030000020A1F7D001FA01A193B08308957AE0BE
:10204000979F902D879F802D910D11240895052E27
:1020500097FB1EF400940E943E1057FD07D00E948B
:10206000591007FC03D04EF40C943E105095409547
:10207000309521953F4F4F4F5F4F08959095809534
:10208000709561957F4F8F4F9F4F08950E947B10F1
:10209000A59F900DB49F900DA49F800D911D1124BC
:1020A0000895B7FF0C9446100E944610821B930BB4
:1020B0000895A1E21A2EAA1BBB1BFD010DC0AA1F89
:1020C000BB1FEE1FFF1FA217B307E407F50720F0A1
:1020D000A21BB30BE40BF50B661F771F881F991F1C
:1020E0001A9469F760957095809590959B01AC0165
:1020F000BD01CF010895A29FB001B39FC001A39F6E
:10210000700D811D1124911DB29F700D811D112430
:10211000911D08955058BB27AA270E94A2100C9425
:1021200015120E94071238F00E940E1220F039F4A6
:102130009F3F19F426F40C9404120EF4E095E7FB8B
:102140000C94FE11E92F0E94261258F3BA17620769
:1021500073078407950720F079F4A6F50C944812CC
:102160000EF4E0950B2EBA2FA02D0B01B9019001B2
:102170000C01CA01A0011124FF27591B99F0593FF6
:1021800050F4503E68F11A16F040A22F232F342F3E
:102190004427585FF3CF469537952795A795F0408C
:1021A0005395C9F77EF41F16BA0B620B730B840BA1
:1021B000BAF09150A1F0FF0FBB1F661F771F881F59
:1021C000C2F70EC0BA0F621F731F841F48F48795B1
:1021D00077956795B795F7959E3F08F0B0CF9395A3
:1021E000880F08F09927EE0F9795879508950E941C
:1021F000DA1108F481E008950E9410110C94151270
:102200000E940E1258F00E94071240F029F45F3F1E
:1022100029F00C94FE1151110C9449120C940412E3
:102220000E94261268F39923B1F3552391F3951B6D
:10223000550BBB27AA2762177307840738F09F5FE7
:102240005F4F220F331F441FAA1FA9F335D00E2E54
:102250003AF0E0E832D091505040E695001CCAF7C1
:102260002BD0FE2F29D0660F771F881FBB1F261784
:1022700037074807AB07B0E809F0BB0B802DBF015B
:10228000FF2793585F4F3AF09E3F510578F00C942A
:10229000FE110C9449125F3FE4F3983ED4F3869507
:1022A00077956795B795F7959F5FC9F7880F911D4B
:1022B0009695879597F90895E1E0660F771F881F37
:1022C000BB1F621773078407BA0720F0621B730BEA
:1022D000840BBA0BEE1F88F7E09508950E942E122A
:1022E00088F09F5798F0B92F9927B751B0F0E1F0D7
:1022F000660F771F881F991F1AF0BA95C9F714C087
:10230000B13091F00E944812B1E008950C94481247
:10231000672F782F8827B85F39F0B93FCCF38695BF
:1023200077956795B395D9F73EF49095809570951C
:1023300061957F4F8F4F9F4F0895E89409C097FB99
:102340003EF490958095709561957F4F8F4F9F4F8C
:102350009923A9F0F92F96E9BB279395F6958795D0
:1023600077956795B795F111F8CFFAF4BB0F11F493
:1023700060FF1BC06F5F7F4F8F4F9F4F16C088233A
:1023800011F096E911C0772321F09EE8872F762F70
:1023900005C0662371F096E8862F70E060E02AF0B1
:1023A0009A95660F771F881FDAF7880F969587959D
:1023B00097F90895990F0008550FAA0BE0E8FEEF72
:1023C00016161706E807F907C0F012161306E407F9
:1023D000F50798F0621B730B840B950B39F40A26F2
:1023E00061F0232B242B252B21F408950A2609F4D0
:1023F000A140A6958FEF811D811D089597F99F67D4
:1024000080E870E060E008959FEF80EC089500247C
:102410000A941616170618060906089500240A9449
:1024200012161306140605060895092E0394000CCF
:1024300011F4882352F0BB0F40F4BF2B11F460FF5E
:1024400004C06F5F7F4F8F4F9F4F089557FD905887
:10245000440F551F59F05F3F71F04795880F97FB68
:10246000991F61F09F3F79F0879508951216130622
:102470001406551FF2CF4695F1DF08C01616170651
:102480001806991FF1CF8695710561050894089586
:10249000E894BB2766277727CB0197F908950E9418
:1024A000DA1108F48FEF08950E9467120C94151248
:1024B0000E94071238F00E940E1220F0952311F0AE
:1024C0000C94FE110C94041211240C9449120E94D5
:1024D000261270F3959FC1F3950F50E0551F629F30
:1024E000F001729FBB27F00DB11D639FAA27F00D6D
:1024F000B11DAA1F649F6627B00DA11D661F829F94
:102500002227B00DA11D621F739FB00DA11D621F78
:10251000839FA00D611D221F749F3327A00D611D95
:10252000231F849F600D211D822F762F6A2F112477
:102530009F5750409AF0F1F088234AF0EE0FFF1FAA
:10254000BB1F661F771F881F91505040A9F79E3F01
:10255000510580F00C94FE110C9449125F3FE4F396
:10256000983ED4F3869577956795B795F795E79557
:102570009F5FC1F7FE2B880F911D9695879597F960
:1025800008950E94DA11880B990B0895991B79E040
:1025900004C0991F961708F0961B881F7A95C9F7F3
:1025A00080950895AA1BBB1B51E107C0AA1FBB1F42
:1025B000A617B70710F0A61BB70B881F991F5A95CF
:1025C000A9F780959095BC01CD010895EE0FFF1FEE
:1025D0000590F491E02D09940F931F93CF93DF930F
:1025E0008230910510F482E090E0E0917404F09163
:1025F000750420E030E0A0E0B0E0309719F14081B0
:1026000051810281138148175907C8F08417950733
:1026100069F4109731F012960C93129713961C934D
:1026200027C0009374041093750422C0211531054E
:1026300019F04217530718F49A01BD01EF01DF01A9
:10264000F801DBCF21153105F9F0281B390B2430B7
:10265000310580F48A819B816115710521F0FB01B0
:102660009383828304C09093750480937404FE0165
:10267000329644C0FE01E20FF31F819391932250E2
:102680003109398328833AC0209172043091730450
:10269000232B41F42091470130914801309373047A
:1026A0002093720420914501309146012115310596
:1026B00041F42DB73EB74091490150914A01241B86
:1026C000350BE0917204F0917304E217F307A0F464
:1026D0002E1B3F0B2817390778F0AC014E5F5F4F78
:1026E0002417350748F04E0F5F1F50937304409333
:1026F00072048193919302C0E0E0F0E0CF01DF919A
:10270000CF911F910F910895CF93DF93009709F414
:1027100081C0FC01329713821282A0917404B0919F
:102720007504109781F420813181820F931F2091CD
:102730007204309173042817390751F5F09373042C
:10274000E093720467C0ED0120E030E0CE17DF07B0
:1027500040F44A815B819E0141155105F1F0EA0187
:10276000F5CFD383C28340815181840F951FC81751
:10277000D90759F488819981840F951F0296918316
:1027800080838A819B81938382832115310529F47B
:10279000F0937504E09374043DC0E901FB83EA8380
:1027A00049915991C40FD51FEC17FD0761F4808141
:1027B0009181840F951F0296E90199838883828114
:1027C00093819B838A83E0E0F0E012968D919C9147
:1027D0001397009719F0FD01DC01F7CF8D919C91C3
:1027E00011979D012E5F3F4F820F931F209172041E
:1027F000309173042817390769F4309729F410923F
:1028000075041092740402C013821282B093730490
:10281000A0937204DF91CF910895A0E0B0E0E3E1CE
:10282000F4E10C941515EC01009721F4CB010E9402
:10283000EC12B4C0FC01E60FF71F9C0122503109D5
:10284000E217F30708F4A8C0D9010D911C91119764
:1028500006171707B0F00530110508F49BC0C80132
:1028600004978617970708F495C002501109061BB4
:10287000170B019311936D937C93CF010E948413E6
:1028800089C05B01A01AB10A4C01800E911EA09173
:102890007404B0917504612C712CE12CF12C10970B
:1028A00009F446C08D919C911197A815B905B1F511
:1028B0006C0142E0C40ED11CCA14DB0478F14C0157
:1028C0008A189B08640142E0C40ED11C1296BC9089
:1028D00012971396AC91B5E0CB16D10440F0B282BA
:1028E000A38391828082D9016D937C9309C00E5F8E
:1028F0001F4F800F911FF90191838083EB2DFA2FD9
:10290000E114F10431F0D7011396FC93EE93129782
:1029100041C0F0937504E09374043CC068167906D6
:1029200008F43C017D0112960D90BC91A02DB7CF0B
:10293000809172049091730488169906E1F46616EA
:102940007706C8F48091450190914601009741F4C3
:102950008DB79EB74091490150914A01841B950B58
:10296000E817F907C8F4F0937304E0937204F901CF
:10297000718360830FC0CB010E94EC127C01009731
:1029800059F0A801BE010E94E114CE010E948413F7
:10299000C70104C0CE0102C080E090E0CDB7DEB731
:1029A000EEE00C94311581E090E0F8940C94481519
:1029B000803209F091110C940E1580528F55D8F782
:1029C0000895FB01DC0102C001900D92415050407E
:1029D000D8F70895FB01DC0101900D920020E1F78A
:1029E0000895FB01DC014150504030F08D91019081
:1029F000801919F40020B9F7881B990B0895FB0181
:102A0000DC014150504048F001900D920020C9F780
:102A100001C01D9241505040E0F708959927882742
:102A200008952F923F924F925F926F927F928F9272
:102A30009F92AF92BF92CF92DF92EF92FF920F934D
:102A40001F93CF93DF93CDB7DEB7CA1BDB0B0FB657
:102A5000F894DEBF0FBECDBF09942A883988488814
:102A60005F846E847D848C849B84AA84B984C884AA
:102A7000DF80EE80FD800C811B81AA81B981CE0FA1
:102A8000D11D0FB6F894DEBF0FBECDBFED01089586
:042A9000F894FFCFE8
:102A940004040A0A1111110E040A0A0E0E1F1F0E55
:102AA400010105091F080400040E0E0E1F00040096
:102AB400000103161C080000000C1D0F0F06000087
:102AC400000A1F1F0E0400000203020E1E0C000069
:102AD40001010000000000760480000000400014A2
:102AE40000540000000000FA009300BD00470145B7
:102AF40002CC00E00000000000EC02BF028A025D8C
:102B04000281026D025E0200000000AB0593008AA0
:102B14000289024D6179203230203230313900315E
:102B2400303A34393A3037006C6564006C65644C73
:102B34004344007669657700726573657400544593
:102B44005854005363616E6E696E672E2E2E000D0D
:102B54000A003A002F005265736574696E672E2E61
:102B64002E004C4544204F4E20004C4544204F46F7
:102B740046004B686F6E672074696D2074686179D4
:102B8400204C4344004320002520006E616E006900
:082B94006E66006F766600001A
:00000001FF
